{
  "contractName": "SimpleBank",
  "abi": [
    {
      "inputs": [],
      "stateMutability": "nonpayable",
      "type": "constructor"
    },
    {
      "inputs": [],
      "name": "transaction",
      "outputs": [
        {
          "internalType": "uint256",
          "name": "",
          "type": "uint256"
        }
      ],
      "stateMutability": "view",
      "type": "function",
      "constant": true
    },
    {
      "inputs": [],
      "name": "getContractBalance",
      "outputs": [
        {
          "internalType": "uint256",
          "name": "",
          "type": "uint256"
        }
      ],
      "stateMutability": "view",
      "type": "function",
      "constant": true
    },
    {
      "inputs": [],
      "name": "getBalance",
      "outputs": [
        {
          "internalType": "uint256",
          "name": "",
          "type": "uint256"
        }
      ],
      "stateMutability": "view",
      "type": "function",
      "constant": true
    },
    {
      "inputs": [],
      "name": "deposit",
      "outputs": [],
      "stateMutability": "payable",
      "type": "function",
      "payable": true
    },
    {
      "inputs": [
        {
          "internalType": "uint256",
          "name": "amount",
          "type": "uint256"
        }
      ],
      "name": "withdraw",
      "outputs": [
        {
          "internalType": "uint256",
          "name": "",
          "type": "uint256"
        }
      ],
      "stateMutability": "payable",
      "type": "function",
      "payable": true
    }
  ],
  "bytecode": "0x608060405234801561001057600080fd5b5033600160006101000a81548173ffffffffffffffffffffffffffffffffffffffff021916908373ffffffffffffffffffffffffffffffffffffffff1602179055506104b8806100616000396000f3fe60806040526004361061004a5760003560e01c806312065fe01461004f5780632e1a7d4d1461007a5780636f9fb98a146100aa578063c99de57e146100d5578063d0e30db014610100575b600080fd5b34801561005b57600080fd5b5061006461010a565b6040516100719190610344565b60405180910390f35b610094600480360381019061008f919061030c565b610150565b6040516100a19190610344565b60405180910390f35b3480156100b657600080fd5b506100bf61027a565b6040516100cc9190610344565b60405180910390f35b3480156100e157600080fd5b506100ea610282565b6040516100f79190610344565b60405180910390f35b610108610288565b005b60008060003373ffffffffffffffffffffffffffffffffffffffff1673ffffffffffffffffffffffffffffffffffffffff16815260200190815260200160002054905090565b60008060003373ffffffffffffffffffffffffffffffffffffffff1673ffffffffffffffffffffffffffffffffffffffff16815260200190815260200160002054821161023457816000803373ffffffffffffffffffffffffffffffffffffffff1673ffffffffffffffffffffffffffffffffffffffff16815260200190815260200160002060008282546101e591906103b5565b925050819055503373ffffffffffffffffffffffffffffffffffffffff166108fc839081150290604051600060405180830381858888f19350505050158015610232573d6000803e3d6000fd5b505b6000803373ffffffffffffffffffffffffffffffffffffffff1673ffffffffffffffffffffffffffffffffffffffff168152602001908152602001600020549050919050565b600047905090565b60025481565b346000803373ffffffffffffffffffffffffffffffffffffffff1673ffffffffffffffffffffffffffffffffffffffff16815260200190815260200160002060008282546102d6919061035f565b92505081905550600260008154809291906102f0906103f3565b9190505550565b6000813590506103068161046b565b92915050565b60006020828403121561031e57600080fd5b600061032c848285016102f7565b91505092915050565b61033e816103e9565b82525050565b60006020820190506103596000830184610335565b92915050565b600061036a826103e9565b9150610375836103e9565b9250827fffffffffffffffffffffffffffffffffffffffffffffffffffffffffffffffff038211156103aa576103a961043c565b5b828201905092915050565b60006103c0826103e9565b91506103cb836103e9565b9250828210156103de576103dd61043c565b5b828203905092915050565b6000819050919050565b60006103fe826103e9565b91507fffffffffffffffffffffffffffffffffffffffffffffffffffffffffffffffff8214156104315761043061043c565b5b600182019050919050565b7f4e487b7100000000000000000000000000000000000000000000000000000000600052601160045260246000fd5b610474816103e9565b811461047f57600080fd5b5056fea264697066735822122024a9e7999a68182dd20305f84d02bc5547b8cc53f45c47db477c626346eafc3d64736f6c63430008040033",
  "immutableReferences": {},
  "source": "// SPDX-License-Identifier: MIT\npragma solidity >=0.4.22 ^0.8.0;\n\nimport \"@openzeppelin/contracts/utils/math/SafeMath.sol\";\n\ncontract SimpleBank {\n    mapping(address => uint256) private _balances;\n    address _owner;\n    uint public transaction;\n    using SafeMath for uint256;\n\n    constructor() {\n        _owner = msg.sender;\n    }\n\n    function getContractBalance() public view returns (uint){\n        return address(this).balance;\n    }\n\n    function getBalance() public view returns(uint) {\n        return _balances[msg.sender];\n    }\n\n    function deposit() public payable {\n        _balances[msg.sender] += msg.value;\n        transaction++;\n    }\n\n    function withdraw(uint amount) public payable returns (uint){\n        if(amount <= _balances[msg.sender]) {\n            _balances[msg.sender] -= amount;\n            payable(msg.sender).transfer(amount);\n        }\n        return _balances[msg.sender];\n    }\n\n}\n",
  "sourcePath": "/home/michael/Documents/Simple_Bank/contracts/Simplebank.sol",
  "compiler": {
    "name": "solc",
    "version": "0.8.4+commit.c7e474f2.Emscripten.clang"
  },
  "schemaVersion": "3.4.1",
  "updatedAt": "2021-06-09T14:26:57.978Z",
  "networkType": "ethereum",
  "devdoc": {
    "kind": "dev",
    "methods": {},
    "version": 1
  },
  "userdoc": {
    "kind": "user",
    "methods": {},
    "version": 1
  }
}